:020000040000FA
:1000000038060020F5000000FD000000FF000000A1
:1000100001010000030100000501000000000000D4
:1000200000000000000000000000000007010000C8
:1000300009010000000000000B010000990400000D
:10004000110600000F0100000F0100000F01000069
:100050000F0100000F0100000F0100000F01000060
:100060000F0100000F010000000000000F01000060
:100070000F0100003D010000710100000F010000B0
:100080000F010000F5040000B10300000F010000A3
:100090000F0100000F0100000F0100000F01000020
:1000A0000F0100000F0100000F0100000F01000010
:1000B0000F0100000F0100000F0100000F01000000
:1000C0000F0100000F0100000F0100000F010000F0
:1000D0000F0100000F0100000F01000000000000F0
:1000E000DFF80CD000F018F8004800472D0700009A
:1000F000380600200648804706480047FEE7FEE72E
:10010000FEE7FEE7FEE7FEE7FEE7FEE7FEE7FEE7C7
:10011000C9040000E1000000064C074D06E0E0685D
:1001200040F0010394E8070098471034AC42F6D33E
:10013000FFF7DAFFD8070000E807000008B5002045
:1001400000900848007800900648806C06490860D6
:100150000648008820F4007000F50070034908800C
:1001600008BD0000000003407C0000203C0000208F
:1001700008B50020009008480078009006484830F4
:100180000068064908600648008820F4806000F591
:1001900080600349088008BD800003408000002083
:1001A0003C00002000B500F02FF800F083F800F0CC
:1001B000D3F800F0BDF800F0E7F800F045F800F0E3
:1001C00059F800F001F800BD80200E4908700D4874
:1001D0004C3890F83C0040F080000A494C3981F8D6
:1001E0003C00084690F8340040F0800081F834006C
:1001F000084690F8380040F0800002491439087031
:10020000704700004C60004001200E4908700D4806
:100210007C3890F86C0040F001000A497C3981F884
:100220006C00084690F8640040F0010081F864001A
:10023000084690F8680040F001000249143908703F
:10024000704700007C6000400948007840F01000D2
:100250000749343981F83400102081F850000846ED
:1002600090F8380020F010000149091D087070470F
:100270003460004060200E4908700D48503890F8F6
:100280003C0040F060000A49503981F83C000846C3
:1002900090F8340040F0600081F83400084690F88F
:1002A000380020F0600002491839087070470000DB
:1002B000506000401D48007920F0D0001B490871B3
:1002C0000846007B40F0D00008730846007A40F0F2
:1002D000D000087215483430007820F00F0081F803
:1002E0003400084690F83C0040F00F0081F83C00D4
:1002F000084690F8380040F00F0081F838000846B2
:1003000090F8640020F0060081F86400084690F838
:100310006C0040F0060081F86C00084690F8680018
:1003200040F0060081F8680070470000006000405F
:100330000848007920F00600064908710846007B4D
:1003400040F0060008730846007A40F00600087284
:10035000704700000060004009200A490870094801
:100360002038007B20F00900064920390873084630
:10037000007940F0090008710846007A20F0090071
:1003800008727047206000400848007B20F0200081
:10039000064908730846007920F0200008710846D5
:1003A000007A20F0200008727047000000600040D2
:1003B00008B54FF04020008800903148007850B3D5
:1003C00001285AD12F480088401E2E49088008462F
:1003D000008858B12C48006800784FF0402108721E
:1003E00029480068401C2849086013E02748008815
:1003F00050B1AA204FF04021087200202049087017
:1004000023482149086005E02248008820F48070D4
:100410002049088031E01D48008838B3AA204FF0F9
:10042000402108720846008A00F4805028B108462E
:10043000008A20F4805008821EE00FE04FF0402038
:1004400000791149096808700F480068401C0E497E
:1004500008600E480088401E0C4908804FF040207C
:10046000008800F4E0600028E8D105E00948008831
:1004700020F480700749088000BF00BF08BD00005D
:1004800054000020500000204C00002052000020AA
:10049000240200203C000020074808490860084862
:1004A000084908604FF0E020006920F003004FF099
:1004B000E021086170470000A400002040000020F7
:1004C000E4000020440000200020074908800120AB
:1004D0000649088002200649088047F2F810888003
:1004E00040F2FF3088857047882500404424004052
:1004F000002000400CB54148007A01903F48007D43
:1005000000909DF80400022802D004285CD127E066
:100510003B4800680078394908703948006800781D
:100520000A2817D13748008820F0100010303549CC
:10053000088008460088C0F3003020B908460088CB
:1005400020F0200008802D48007920F002002B497F
:10055000087104E02A480068401C294908604AE004
:100560004FF0E020006920F003004FF0E021086127
:1005700022480078244909680870234800680078F8
:100580000A280AD11F48008820F0080008301D49B9
:1005900008801E481C49086015E01B480068401C84
:1005A000194908600846016818482030814202D97C
:1005B0002038154908604FF0E020006940F0030042
:1005C0004FF0E021086116E09DF8000000F01000F7
:1005D00028B10C48008820F004000A490880074828
:1005E000007809490968087008480749086005202B
:1005F0000249087100BF00BF0CBD00000050004060
:10060000400000203C00002044000020E4000020C6
:100610000820094908800948008820F4005000F5A6
:1006200000500649088000BF00BF00BFBFF34F8FD6
:1006300000BF00BF00BF7047302500403C000020D5
:1006400000280DDB00BF00BF00F01F020121914018
:100650004209920002F1E022C2F8001100BF00BF7F
:10066000704702E008C8121F08C1002AFAD170477B
:100670007047002001E001C1121F002AFBD1704722
:1006800004210E4A116044F659010D4A11804FF2BF
:100690007B2111800421121F1170002000BF00E097
:1006A000401C0228FCD330BF002000E0401C022880
:1006B000FCD30121034A11707047000010ED00E0E7
:1006C00004240040246000400348808D20F4FB7027
:1006D00001498885704700000020004070B505463C
:1006E0002888441E0E48007840F001000C4908702C
:1006F00040F203300A49F83108800A490C80200C86
:10070000091D0880081D008840F00800091D0880A8
:100710000020FFF795FF01200349086070BD00002D
:1007200010240040202500401CA1044208B5FFF71A
:1007300039FDFFF7C9FF0120084908700820074963
:1007400024390877C800064988600120009068466F
:10075000FFF7C4FF01E0FFF793FFFCE724600040D0
:100760000000034031323334000000003B47443B7B
:10077000000000003B43463B000000003B474C4E5E
:100780003B0000003B534C4E3B0000003B47503BBE
:10079000000000003B474C503B0000003B534C50D6
:1007A0003B0000003B53503B000000003B54523BD9
:1007B000000000003B54533B000000003B47543B0B
:1007C000000000003B53543B000000004F4B000072
:1007D0004552524F52000000E80700000000002080
:1007E000A400000062060000CC070000D007000053
:1007F00064070000C4070000BC0700006C0700008D
:1008000074070000840700009C0700007C070000BC
:1008100094070000A40700008C070000B407000044
:10082000AC07000000000000A4000020E40000204D
:1008300000000000000000000000000000000000B8
:1008400000000000000000000000000001003C006B
:1008500001008000FF7FFF7FFF7F8200008000801B
:100860000080830000000000000000000000000085
:100870000000000000000000000000000000000078
:0C0880000000000000000000000000006C
:04000005000000E116
:00000001FF
