:020000040000FA
:1000000038060020F5000000FD000000FF000000A1
:1000100001010000030100000501000000000000D4
:1000200000000000000000000000000007010000C8
:1000300009010000000000000B0100006105000044
:10004000D90600000F0100000F0100000F010000A1
:100050000F0100000F0100000F0100000F01000060
:100060000F0100000F010000000000000F01000060
:100070000F0100003D010000710100000F010000B0
:100080000F010000BD050000790400000F01000011
:100090000F0100000F0100000F0100000F01000020
:1000A0000F0100000F0100000F0100000F01000010
:1000B0000F0100000F0100000F0100000F01000000
:1000C0000F0100000F0100000F0100000F010000F0
:1000D0000F0100000F0100000F01000000000000F0
:1000E000DFF80CD000F018F800480047A508000021
:1000F000380600200648804706480047FEE7FEE72E
:10010000FEE7FEE7FEE7FEE7FEE7FEE7FEE7FEE7C7
:1001100091050000E1000000064C074D06E0E06894
:1001200040F0010394E8070098471034AC42F6D33E
:10013000FFF7DAFF400900005009000008B5002071
:1001400000900848007800900648806C06490860D6
:100150000648008820F4007000F50070034908800C
:1001600008BD0000000003407C0000203C0000208F
:1001700008B50020009008480078009006484830F4
:100180000068064908600648008820F4806000F591
:1001900080600349088008BD800003408000002083
:1001A0003C00002000B500F051F800F0C3F800F06A
:1001B00033F900F0FDF800F009F800F049F900F01B
:1001C0006BF800F08BF800F015F800BD08480079D6
:1001D00020F01000064908710846007B40F010002E
:1001E00008730846007A40F010000872704700005B
:1001F0000060004080200E4908700D484C3890F88F
:100200003C0040F080000A494C3981F83C00084627
:1002100090F8340040F0800081F83400084690F8EF
:10022000380040F08000024914390870704700001F
:100230004C60004000B5FFF7DDFF0348008E20F45E
:1002400000400149088600BD0060004001200E49C1
:1002500008700D487C3890F86C0040F001000A49A5
:100260007C3981F86C00084690F8640040F0010089
:1002700081F86400084690F8680040F001000249E7
:1002800014390870704700007C600040012001496B
:10029000087070477C6000400948007840F010000A
:1002A0000749343981F83400102081F8500008469D
:1002B00090F8380020F010000149091D08707047BF
:1002C0003460004000B5FFF7E7FF0348008E20F4DC
:1002D00000700149088600BD0060004060200E49A2
:1002E00008700D48503890F83C0040F060000A4912
:1002F000503981F83C00084690F8340040F0600026
:1003000081F83400084690F8380020F06000024977
:1003100018390870704700005060004000B5FFF7C2
:10032000DDFF0348008E20F420500149088600BDFF
:10033000006000401D48007920F0C0001B49087192
:100340000846007B40F0C00008730846007A40F081
:10035000C000087215483430007820F00F0081F892
:100360003400084690F83C0040F00F0081F83C0053
:10037000084690F8380040F00F0081F83800084631
:1003800090F8640020F0060081F86400084690F8B8
:100390006C0040F0060081F86C00084690F8680098
:1003A00040F0060081F868007047000000600040DF
:1003B0000F48007920F004000D4908710846007BC1
:1003C00040F0040008730846007A40F00400087208
:1003D0000846007920F0020008710846007B20F0F2
:1003E000020008730846007A20F002000872704785
:1003F000006000400348008820F03C00014908806C
:10040000704700000060004000B5FFF75BFFFFF79A
:1004100085FFFFF70FFF00BD09200A490870094852
:100420002038007B20F0090006492039087308466F
:10043000007940F0090008710846007A20F00900B0
:10044000087270472060004000B5FFF7E5FF00BD6F
:100450000848007B20F02000064908730846007910
:1004600020F0200008710846007A20F02000087271
:10047000704700000060004008B54FF04020008841
:1004800000903148007850B301285AD12F48008895
:10049000401E2E4908800846008858B12C48006844
:1004A00000784FF04021087229480068401C284914
:1004B000086013E02748008850B1AA204FF040217F
:1004C000087200202049087023482149086005E08F
:1004D0002248008820F480702049088031E01D48BF
:1004E000008838B3AA204FF0402108720846008ADD
:1004F00000F4805028B10846008A20F48050088219
:100500001EE00FE04FF040200079114909680870A3
:100510000F480068401C0E4908600E480088401EC5
:100520000C4908804FF04020008800F4E06000286B
:10053000E8D105E00948008820F480700749088068
:1005400000BF00BF08BD0000540000205000002084
:100550004C00002052000020240200203C0000201B
:100560000748084908600848084908604FF0E0203B
:10057000006920F003004FF0E0210861704700009F
:10058000A400002040000020E400002044000020DF
:1005900000200749088001200649088002200649FA
:1005A000088047F2F810888040F2FF308885704755
:1005B0008825004044240040002000400CB54148FC
:1005C000007A01903F48007D00909DF804000228C9
:1005D00002D004285CD127E03B4800680078394904
:1005E00008703948006800780A2817D13748008811
:1005F00020F0100010303549088008460088C0F30C
:10060000003020B90846008820F0200008802D48DE
:10061000007920F002002B49087104E02A480068A4
:10062000401C294908604AE04FF0E020006920F0B2
:1006300003004FF0E021086122480078244909684E
:1006400008702348006800780A280AD11F480088EB
:1006500020F0080008301D4908801E481C49086029
:1006600015E01B480068401C1949086008460168ED
:1006700018482030814202D92038154908604FF0CF
:10068000E020006940F003004FF0E021086116E02F
:100690009DF8000000F0100028B10C48008820F000
:1006A00004000A4908800748007809490968087069
:1006B00008480749086005200249087100BF00BFCB
:1006C0000CBD000000500040400000203C00002015
:1006D00044000020E400002008200949088009485F
:1006E000008820F4005000F500500649088000BF43
:1006F00000BF00BFBFF34F8F00BF00BF00BF7047F8
:10070000302500403C00002000280DDB00BF00BF6A
:1007100000F01F02012191404209920002F1E02203
:10072000C2F8001100BF00BF704702E008C8121FE6
:1007300008C1002AFAD170477047002001E001C1CA
:10074000121F002AFBD1704710B50B48806820F4B7
:1007500000200949886008488830006820F400209B
:10076000C1F888000548808D40F4007003498885F1
:10077000FFF76AFE10BD00000000034000200040AB
:1007800010B54FF04020008A20F001004FF04021CA
:1007900008820748808840F007000549888008469D
:1007A000808D40F001008885FFF72EFE10BD00000F
:1007B0000020004010B501200849087008488088D2
:1007C00040F46060064988800846808D40F008004B
:1007D0008885FFF70FFE002010BD0000305000405C
:1007E0000020004010B5FFF7CBFFFFF7E3FF1249F1
:1007F000098860F3820110480180FFF7A5FFFFF729
:1008000045FD04200D49086044F659000C49088054
:100810004FF27B2008800420091F0870002400BFCD
:1008200000E0641C022CFCD330BF002400E0641CF8
:10083000022CFCD310BD00003C00002010ED00E0B5
:10084000042400400348808D20F4FB700149888512
:10085000704700000020004070B505462C880E4807
:10086000007840F001000C49087040F203300A495A
:10087000F831088009490C80200C091D0880081DEA
:10088000008840F00800091D08800020FFF73CFFA9
:1008900001200349086070BD10240040202500405D
:1008A0001CA1044208B5FFF77DFCFFF7CBFF4FF416
:1008B000403005498860012000906846FFF7CCFF72
:1008C00001E0FFF78FFFFCE70000034031323334D3
:1008D000000000003B47443B000000003B43463B18
:1008E000000000003B474C4E3B0000003B534C4E89
:1008F0003B0000003B47503B000000003B474C5092
:100900003B0000003B534C503B0000003B53503B2E
:10091000000000003B54523B000000003B54533B9E
:10092000000000003B47543B000000003B53543B99
:10093000000000004F4B00004552524F5200000093
:100940005009000000000020A40000002A07000059
:100950003409000038090000CC0800002C09000010
:1009600024090000D4080000DC080000EC080000A6
:1009700004090000E4080000FC0800000C09000065
:10098000F40800001C090000140900000000000029
:10099000A4000020E400002000000000000000008F
:1009A0000000000000000000000000000000000047
:1009B0000000000001003C0001008000FF7FFF7F7D
:1009C000FF7F820000800080008083000000000024
:1009D0000000000000000000000000000000000017
:1009E0000000000000000000000000000000000007
:0409F0000000000003
:04000005000000E116
:00000001FF
