:020000040000FA
:1000000068060020F5000000FD000000FF00000071
:1000100001010000030100000501000000000000D4
:1000200000000000000000000000000007010000C8
:1000300009010000000000000B010000A9060000FB
:10004000210800000F0100000F0100000F01000057
:100050000F0100000F0100000F0100000F01000060
:100060000F0100000F010000000000000F01000060
:100070000F010000590500008D0500000F01000070
:100080000F01000005070000C10500000F0100007E
:100090000F0100000F0100000F0100000F01000020
:1000A0000F0100000F0100000F0100000F01000010
:1000B0000F0100000F0100000F0100000F01000000
:1000C0000F0100000F0100000F0100000F010000F0
:1000D0000F0100000F0100000F01000000000000F0
:1000E000DFF80CD000F0A4F9004800478D1700009D
:1000F000680600200648804706480047FEE7FEE7FE
:10010000FEE7FEE7FEE7FEE7FEE7FEE7FEE7FEE7C7
:10011000D9060000E10000002DE9F0410024061B93
:10012000254671F1000605DA01240027D0EB07000F
:1001300067EB0101161E73F1000605DA0027D2EB0A
:100140000702012567EB030300F0BDF886460E4663
:1001500017469C46AC4204D00025D0EB050E65EB5B
:10016000010624B10020D2EB000760EB030C7046BF
:1001700031463A466346BDE8F081000038B5D0E923
:100180000221491E01EB410102EBC1014268C1EBB2
:10019000011102EB81010268C1EB011102EB810246
:1001A000D0E9043101EB410103EB81013023A1F5DA
:1001B000527191FBF3F4174D6C4302EBC41291FBA7
:1001C000F3F403FB141100921A2902DB124B1A44B8
:1001D00000920C2291FBF2F3104C6343009C04EB61
:1001E000C313009391FBF2F302FB13110C4A08E0D6
:1001F000491E40F2A324535C6343009C04EBC313E9
:1002000000930029F4DC0146684600F093F800985A
:1002100038BD00003F0C0F008051010067C2030091
:100220000022000040EA01039B0703D009E008C94F
:10023000121F08C0042AFAD203E011F8013B00F8AB
:10024000013B521EF9D2704730B505462A460B468F
:1002500012F8010B13F8014B08B1A042F8D01CB101
:10026000002802D06D1CF1E7284630BDCAB2401EFE
:1002700010F8011F8A4202D00029F9D100207047EE
:1002800070B5064600F00AFB046805460A22002104
:10029000304600F095F82C6070BD30B50B46014635
:1002A00000202022012409E021FA02F59D4205D315
:1002B00003FA02F5491B04FA02F52844151EA2F1BF
:1002C0000102F1DC30BD2DE9F05F054600209246C9
:1002D0009B4688460646814640241BE02846414608
:1002E0004746224600F0C5F853465A46C01A914187
:1002F00010D311461846224600F0ACF82D1A67EBD1
:1003000001084F4622460120002100F0A3F817EB18
:1003100000094E41201EA4F10104DFDC48463146AD
:100320002A464346BDE8F09F014900F003B80000AB
:100330003802002010B500683C22B0FBF2F302FB4B
:100340001303B0FBF2F00B60B0FBF2F302FB1303FC
:10035000B0FBF2F018224B60B0FBF2F302FB130388
:10036000B0FBF2F0021D8B600723B2FBF3F403FB3A
:100370001422800040F2B55300F66C308A61B0FB65
:10038000F3F2B0FBF3F403FB1400443280084A613B
:10039000C8613B2802D3920700D0401C0022074CC2
:1003A00013460A61E25C824203D8801A5B1C0B612F
:1003B000F8E7401CC860084610BD00000C22000091
:1003C0002DE9F04791460F4680460446002614F872
:1003D000015B2DB100F05EF80068405DC007F6D10A
:1003E0002B2D02D02D2D18D0641E4A4639462046AA
:1003F00000F054F827B13968A14201D1C7F8008054
:1004000071054FF002040BD54042002803DD00F0D7
:1004100045FA0460A007BDE8F08746F48066E4E78B
:100420000028F8DA00F03AFA04606FF00040F2E7D2
:10043000064C074D06E0E06840F0010394E8070031
:1004400098471034AC42F6D3FFF74EFE1423000059
:1004500024230000202A04DB203A00FA02F10020C5
:1004600070479140C2F1200320FA03F319439040F2
:100470007047202A04DB203A21FA02F0002170475D
:1004800021FA02F3D040C2F12002914008431946FC
:1004900070470000004870479C2200002DE9F05F83
:1004A00082460078002715468B460AF10104B946BA
:1004B000302801D09DB113E014F8010B01277828F2
:1004C00003D0582801D045B10AE00DB1102D07D155
:1004D0000027102514F8010B02E0082500E00A258A
:1004E0000026B0460EE005FB080005FB06F10127DB
:1004F00001EB10461FFA80F8B6F5803F00D3B946ED
:1005000014F8010B294600F018F80028EBDABBF1CB
:10051000000F05D00FB1641E00E05446CBF8004038
:10052000B9F1000F06D000F0B9F902210160C81E30
:10053000BDE8F09F48EA0640FAE73A2800D2303892
:1005400020F02002412A01D3A2F13700884201D3D2
:100550004FF0FF307047000008B5002000900848B9
:10056000007800900648806C0649086006480088BC
:1005700020F4007000F500700349088008BD0000F9
:10058000000003407C0000203C00002008B5002053
:1005900000900848007800900648483000680649F6
:1005A00008600648008820F4806000F580600349F8
:1005B000088008BD80000340800000203C0000202F
:1005C00008B54FF04020008800903148007850B3C3
:1005D00001285AD12F480088401E2E49088008461D
:1005E000008858B12C48006800784FF0402108720C
:1005F00029480068401C2849086013E02748008803
:1006000050B1AA204FF04021087200202049087004
:1006100023482149086005E02248008820F48070C2
:100620002049088031E01D48008838B3AA204FF0E7
:10063000402108720846008A00F4805028B108461C
:10064000008A20F4805008821EE00FE04FF0402026
:1006500000791149096808700F480068401C0E496C
:1006600008600E480088401E0C4908804FF040206A
:10067000008800F4E0600028E8D105E0094800881F
:1006800020F480700749088000BF00BF08BD00004B
:1006900054000020500000204C0000205200002098
:1006A000280200203C00002007480849086008484C
:1006B000084908604FF0E020006920F003004FF087
:1006C000E021086170470000A800002040000020E1
:1006D000E800002044000020002007490880012095
:1006E0000649088002200649088047F2F8108880F1
:1006F00040F2FF3088857047882500404424004040
:10070000002000400CB54148007A01903F48007D30
:1007100000909DF80400022802D004285CD127E054
:100720003B4800680078394908703948006800780B
:100730000A2817D13748008820F0100010303549BA
:10074000088008460088C0F3003020B908460088B9
:1007500020F0200008802D48007920F002002B496D
:10076000087104E02A480068401C294908604AE0F2
:100770004FF0E020006920F003004FF0E021086115
:1007800022480078244909680870234800680078E6
:100790000A280AD11F48008820F0080008301D49A7
:1007A00008801E481C49086015E01B480068401C72
:1007B000194908600846016818482030814202D96A
:1007C0002038154908604FF0E020006940F0030030
:1007D0004FF0E021086116E09DF8000000F01000E5
:1007E00028B10C48008820F004000A490880074816
:1007F0000078094909680870084807490860052019
:100800000249087100BF00BF0CBD0000005000404D
:10081000400000203C00002044000020E8000020B0
:100820000820094908800948008820F4005000F594
:1008300000500649088000BF00BF00BFBFF34F8FC4
:1008400000BF00BF00BF7047302500403C000020C3
:100850000FB4084B10B504A902AA039800F032F8AF
:10086000044602A9002000F0CEF9204610BC5DF835
:1008700014FB0000070C000000280DDB00BF00BFC8
:1008800000F01F02012191404209920002F1E02292
:10089000C2F8001100BF00BF704700000048704759
:1008A000A400002002E008C8121F08C1002AFAD1E3
:1008B00070477047002001E001C1121F002AFBD1E0
:1008C000704700002DE9FF4F8BB088460546002693
:1008D00006E025280BD0DDE90D1290476D1C761C33
:1008E00028780028F5D10FB03046BDE8F08F0024FD
:1008F000A146A2460122AE4900E0044315F8013F9B
:10090000203B02FA03F00842F7D128782A2810D0B9
:100910006FF02F022878A0F13001092915D809EBD2
:10092000890102EB410144F0020400EB01096D1C56
:10093000F0E758F8041B5FEA010903D544F40054BA
:10094000C9F1000944F002046D1C28782E2817D143
:1009500015F8010F44F004042A280ED06FF02F027E
:100960002878A0F1300109290AD80AEB8A0102EBA4
:10097000410100EB010A6D1CF2E758F804AB6D1C55
:1009800028786C280FD006DC4C2817D068280DD0AA
:100990006A2814D104E0742810D07A280FD10DE011
:1009A00044F400140AE044F4801401E044F44014D8
:1009B0006978814202D104F580146D1C6D1C287881
:1009C000692865D006DC00288DD0632827D06428EC
:1009D00006D15DE06E2808D073282AD0752877D01C
:1009E000DDE90D129047761CE0E0C4F302500228C6
:1009F00009D003280DD0D8F8001004280DD00E60BF
:100A000008F10408D2E0D8F80010F217C1E900623A
:100A1000F6E7D8F800100E80F2E70E70F0E718F84D
:100A2000041B8DF8001000208DF80100EB4601201A
:100A300003E058F804BB4FF0FF3061074FF00007A8
:100A400001D40AE07F1C57450DDA8742FADB1BF818
:100A500007100029F6D106E07F1C8742FCDB1BF85B
:100A600007100029F8D1DDE90D23A9EB0700814625
:100A7000214600F0B1F83044C61904E0DDE90D125A
:100A80001BF8010B90477F1EF8D22146484688E0AC
:100A900058F8040BC4F302514FF00A0B032900D19C
:100AA00000B2042900D140B2002802DA40422D21D0
:100AB00002E0210505D52B218DF82410012104E049
:100AC00006E0E10710D02021F6E708AF089113E017
:100AD00058F8040BC4F302514FF00A0B032900D15C
:100AE00080B2042900D1C0B20021EEE75946FFF7D9
:100AF000D4FB303107F8011D0028F7D1ADEB07001A
:100B000000F1200B600702D524F4803401E04FF09F
:100B1000010ADA4502DDAAEB0B0000E00020824664
:100B200000EB0B0108980144A9EB01000A90E003D7
:100B300006D4DDE90D2321460A9800F04DF806445D
:100B40004FF0000908E009A911F80900DDE90D12CC
:100B5000904709F10109761C08998945F3DBE00308
:100B60000CD5DDE90D2321460A9800F035F806443E
:100B700004E0DDE90D1230209047761CBAF1000147
:100B8000AAF1010AF5DC05E0DDE90D1217F8010B09
:100B90009047761CBBF10001ABF1010BF4DC0A9825
:100BA0002146DDE90D2300F005F806446D1C97E6AB
:100BB000092801002DE9F041044600251E4617468C
:100BC000880404D405E039462020B0476D1C641E1B
:100BD000F9D52846BDE8F0812DE9F041044600250D
:100BE0001E469046C80301D5302700E02027880420
:100BF00004D505E041463846B0476D1C641EF9D562
:100C00002846BDE8F0810A68531C0B6010707047DD
:100C10000348044908600520034908710020704713
:100C2000E8000020440000200050004010B500F013
:100C3000C8FAC72001F0B2FA00F0B6FA0020054960
:100C40000880054908600548006800F0E3FE0020C0
:100C500010BD00008C00002090000020000000204B
:100C6000012070472DE9F04395B04B4800684501DD
:100C700000BF4A480088C0F300200028F9D100BF17
:100C80004748006885421DD945480068440921024B
:100C900043480068A0EB441001EBC0070820042380
:100CA0003A46032100903F4801F05EF900BF3B48FF
:100CB0000088C0F300200028F9D13A4800F0A2F8DB
:100CC00080460DE036480068401B86B236480088F2
:100CD000864205DA354901EBC60000F093F88046FC
:100CE000B8F1000FCCD13248FFF71EFB81462C2211
:100CF00049460AA8FFF796FA0AA80BC80D9ACDE94B
:100D00000023CDE902100E98431C0F9800F26C727C
:100D100028A13048FFF79CFD2E4814302E4908606A
:100D20002348B0F91A20B0F918002149B1F916107A
:100D30001F4BB3F91430CDE90631CDE908021C4848
:100D4000B0F91220B0F91010B0F90E00184BB3F939
:100D50000C30CDE90230CDE904121548B0F90A0093
:100D60001349B1F90810CDE900101148B0F9063067
:100D7000B0F9042019A118480068FFF769FD0A4876
:100D80000088284406490968884203D9012015B023
:100D9000BDE8F0830020FAE7900000203C0000202E
:100DA00094000020280200208C0000200C0100206C
:100DB0000C0200202534642F252E32642F252E327C
:100DC000643B252E32643A252E32643A252E326455
:100DD0003B000000A80000204000002025693B25C2
:100DE000693B25693B25693B25693B25693B2569AD
:100DF0003B25693B25693B25693B25693B25693BCB
:100E00000D0A0000014601208A79802A06D0822A34
:100E10000AD0832A10D0842A1AD115E00A881D4BE3
:100E20005A834A881A832EE00A881A4B5A824A88C3
:100E30009A828A88DA8226E00A88164B9A814A8842
:100E4000DA818A881A821EE0124B0A681A601AE058
:100E50000A88104BDA804A881A818A885A811A4691
:100E600013688A7902F001021AB10B4AB2F9002024
:100E700002E0094AB2F902201A44064B1A608A7944
:100E80009A80002000BF00BF044A1268521C034B26
:100E90001A6070470C0200206400002094000020BB
:100EA0001348806820F40020114988601048883079
:100EB000006820F40020C1F888000E48808D40F4BE
:100EC00000700C4988850C48007B40F009000A49F5
:100ED000087309200877012081F87C00084690F803
:100EE0006C0040F0010004496C310870704700004C
:100EF0000000034000200040006000404FF0402010
:100F0000008A20F001004FF0402108820E488088BE
:100F100040F007000C4988800846808D40F00100B1
:100F2000888501200949087008487C3890F86C00D1
:100F300040F0010005497C3981F86C000846008EBC
:100F400020F42A4008867047002000407C60004062
:100F500001200A4908700A48808840F46060084906
:100F600088800846808D40F0080088850548008804
:100F700020F03C00034908800020704730500040BA
:100F800000200040006000401448808D20F4007074
:100F9000124988851248806840F400201049886012
:100FA0000F488830006840F40020C1F88800012014
:100FB0000C4981F88000084690F86C0020F0010090
:100FC00008496C3108700920064981F8200008465C
:100FD000007B20F0090008737047000000200040EB
:100FE00000000340006000401348008E40F42A4097
:100FF0001149088601201049803108700E4890F888
:101000006C0020F001000C4981F86C000B488088CE
:1010100020F00700801C094988800846808D20F058
:10102000010088854FF04020008A40F001004FF019
:10103000402108827047000000600040002000400E
:101040000B48008840F03C00094908800948808826
:1010500020F4606040F40070064988800846808D66
:1010600020F008008885002003490870012070479F
:1010700000600040002000403050004070B5054640
:101080003C4801682846FFF7DFF804460CB9002009
:1010900070BDAC4201D00020FAE73B212846FFF7A3
:1010A000E5F80446601B042801D00020F0E7324830
:1010B00001682046FFF7C8F808B10220E8E72F488A
:1010C00001682046FFF7C0F808B10320E0E72C488C
:1010D00001682046FFF7B8F808B10420D8E729488E
:1010E00001682046FFF7B0F808B10520D0E7264890
:1010F00001682046FFF7A8F808B10620C8E7234892
:1011000001682046FFF7A0F808B10720C0E7204893
:1011100001682046FFF798F808B10820B8E71D4895
:1011200001682046FFF790F808B10920B0E71A4897
:1011300001682046FFF788F808B10A20A8E7174899
:1011400001682046FFF780F808B10B20A0E714489B
:1011500001682046FFF778F808B10C2098E711489D
:1011600001682046FFF770F808B10D2090E70120D4
:101170008EE70000080000200C0000201000002076
:1011800014000020180000201C0000202000002077
:1011900024000020280000202C0000203000002027
:1011A000340000203800002000B500BF052000F00A
:1011B00001FC00F001000028F8D1042000F0EEFF4F
:1011C00000BD00B500BF052000F0F4FB00F00100F9
:1011D0000028F8D1062000F0E1FF00BF052000F054
:1011E000E9FB00F002000228F8D100BD2DE9F84F1C
:1011F000814630488068840AA402CDF80090DDF86A
:101200000090B9F1000F06D0B9F1010F09D0B9F182
:10121000020F13D10BE044F001040820264908779F
:101220000CE044F0430401202349087706E040F233
:101230000910044309202049087700BF00BF4FF47C
:10124000FA4A01E0AAF1010ABAF1000FFAD11948ED
:1012500084601A48008820F40070184908801548F6
:10126000808C20F0070B4BF002001249888400BFED
:1012700012480088C0F340200028F9D010480068C8
:10128000C61705460F494FF0000C2A46A2FB017E07
:1012900006FB01E105FB0C114FF080526346384616
:1012A000FEF73AFF0546092003492031087028B2AD
:1012B000BDE8F88F00000340006000403C000020C3
:1012C0007C0000208096980030B58FB004460D4811
:1012D000FFF72AF805462C22294604A8FEF7A2FFAC
:1012E00004A80BC8079ACDE90023CDE9021008989D
:1012F000431C099800F26C7203A12046FFF7A8FA7C
:101300000FB030BD840000202534642F252E3264B8
:101310002F252E32643B252E32643A252E32643A34
:10132000252E32640000000010B500200649086038
:10133000FFF798FC0549098860F30C3103480180E8
:1013400000F012FF002010BD940000203C0000209F
:1013500008B50848B0F9040000900648B0F902301A
:10136000B0F9002004A10748FFF772FA00F0FCFE74
:10137000002008BD7400002025643B25643B2564E3
:101380000D0A0000A800002008B50848B0F90400C4
:1013900000900648B0F90230B0F9002004A10748D7
:1013A000FFF756FA00F0E0FE002008BD6C000020B8
:1013B00025643B25643B25640D0A0000A80000203D
:1013C00010B50648B0F90230B0F9002004A1064873
:1013D000FFF73EFA00F0C8FE002010BD64000020B8
:1013E00025643B25640D0A00A800002010B50D48B7
:1013F0000D49086008460068FFF766FF0A4909685A
:101400000844094908600D2009680870064800680A
:10141000401C054908600A200968087000F0A4FE15
:10142000002010BDA80000204000002010B5FFF7EC
:10143000ABFD00F093F84006000E4249C880002042
:10144000FFF7D4FE3F4908800120FFF7CFFE3D495A
:1014500048800220FFF7CAFE3A498880FFF720FD46
:1014600039480088C0F3C01038B13648B0F90600DA
:1014700040F001003349C88007E03248C0884FF689
:10148000FE71084000B22F49C8802F480088C0F381
:10149000C020002855D12B49B1F900102B4AB2F9D0
:1014A0000020914207DC2749B1F90010284AB2F91F
:1014B0000020914201DA012100E000210846214983
:1014C000B1F90210214AB2F90220914207DC1D490C
:1014D000B1F902101E4AB2F90220914201DA01214B
:1014E00000E00021014488B21649B1F90410174AFE
:1014F000B2F90420914207DC1249B1F90410144AF0
:10150000B2F90420914201DA012100E000210144F6
:1015100088B208B1012100E000210B4A128861F372
:10152000C71209490A800988C1F3C01119B10949D4
:10153000B1F9001002E00749B1F90210064A118022
:1015400000BF10BD5C0000203C0000206C000020AB
:1015500074000020640000209C0000202DE9F0476A
:101560002048008820F480601E4908801E480088BA
:101570004FF6F87100EA010848F002001A49A43950
:10158000A1F8A40000BF17480088C0F380200028FD
:10159000F9D016480068C5170446154A00202146B0
:1015A000A1FB026905FB029204FB00216FF070426F
:1015B00003463046FEF7B0FD04460D460D4BE21AD9
:1015C00065F1000046F2A813D41840F100054FF46D
:1015D0007A72002320462946FEF79EFD00B2BDE840
:1015E000F08700003C000020A400034080000020A1
:1015F000804F1200B440010010B515480088C0F3B8
:10160000800030B11248008820F4804010490880E2
:1016100010BD0F480088C0F3002020B90C48008896
:10162000C0F3401000B1F3E70948008820F480407F
:1016300007490880FFF762FCFFF78AFC0449098824
:1016400060F3820102480180FFF72AFC00BFDFE758
:101650003C00002010B51448808C40F06300124913
:1016600088840846007940F0010008710E48A430D3
:10167000008840F01300A1F8A4000B4888300068EF
:101680000A4908430849C1F88800084690F88400D0
:1016900040F0010081F884000D20FFF7EDF80E20E6
:1016A000FFF7EAF810BD00000000034011C203007C
:1016B000FF2010490877FD20087308710020087288
:1016C000FF200C494C3108700A49087381F8340036
:1016D0000020084938310870FF2006497C31087025
:1016E00004496C3108700349643108700020091DF9
:1016F000087070470060004010B509204FF040218D
:1017000088810846008A40F6420108434FF0402194
:1017100008821220FFF7B0F810BD000003484FF018
:10172000E02148618861042008617047FF69180062
:1017300010B51348007B40F01E001149087308469D
:10174000007C40F0080008740120088548F6AE00CF
:1017500088840520087111200321002804DB4A0732
:10176000130E084A135406E04A07140E064A00F006
:101770000F031B1FD45400BF1120FFF77DF810BDCD
:101780000050004000E400E018ED00E01CB5FFF759
:101790008FFFFFF7F9FBFFF75DFFFFF781FBFFF717
:1017A0004FFC7749098860F3820175480180FFF793
:1017B000BFFFFFF719FCFFF79FFFFFF79FFBFFF746
:1017C000ADFF00206F4908806F4908606F48007DB9
:1017D00000F0020070B9FFF7BBFB6949098860F3AC
:1017E000820167480180008820F4804000F5804035
:1017F00063490880002000900346012211460190B1
:1018000040F2E37000F094FB614908608420887125
:1018100000F004FC5F4840885F4908805848008811
:1018200020F4006000F5006055490880A6E05448A7
:101830000088C0F3403020B35148008820F40050A5
:101840004F49088052480068401C514908604C4884
:101850000088C0F3C02020B1FFF7E8FD00F0EAF8EF
:101860000FE04B4800684C490988B0FBF1F201FBDE
:10187000120030B94248008820F00200801C404924
:1018800008803F480088C0F3400088B13C48008889
:1018900020F002003A490880FFF7C8FD3F48404960
:1018A00008603748008820F0400040303449088004
:1018B00033480088C0F3801090B13148008820F090
:1018C00040002F49088000F0CBFB08B100F01CFC61
:1018D0002B48008820F4804000F58040284908808B
:1018E00027480088C0F3803070B1FFF785FE274895
:1018F000007D00F0020038B1FFF7A2FB2049098803
:1019000060F382011E4801801D480088C0F300106A
:10191000A0B11B48008820F0100019490880084633
:101920000088C0F3003048B1FFF79CF914490988DA
:1019300060F30C311248018000F016FC104800885A
:10194000C0F3C000D0B10E480088C0F34010A8B961
:101950000B48008820F00800094908801148FFF76B
:101960008DFB114951F820001049086008460068B5
:10197000804718B10E48006800F04CF857E70000A7
:101980003C0000208C0000209000002000600040FF
:1019900084000020640000209C0000205C000020E7
:1019A00048000020E8000020C8210000A00000201E
:1019B0000400002018B504460120034600222146F9
:1019C0000090084800F0D0FA00BF07480088C0F334
:1019D00000200028F9D1034804490860084600683F
:1019E000007818BD280200203C0000204C00002098
:1019F00010B50648008820F40060044908800448B7
:101A0000006800F007F8002010BD00003C00002036
:101A10000000002010B50446224603A10448FEF74A
:101A200017FF00F0A1FB10BD25730D0A0000000098
:101A3000A800002030B58FB01B4C1C48FEF774FC8A
:101A400005462C22294604A8FEF7ECFB04A80BC887
:101A5000079ACDE90023CDE902100898431C0998A4
:101A600000F26C7212A11A48FEF7F2FE1848143008
:101A7000184908602578A01FB0F90400A11FB1F92A
:101A80000210CDE90010A01FB0F9003005EBD570B1
:101A9000421011A10F480068FEF7DAFE00F064FB67
:101AA00000200FB030BD0000620000208400002044
:101AB0002534642F252E32642F252E32643B252EAB
:101AC00032643A252E32643A252E32643B000000FF
:101AD000A80000204000002025693B25693B2569BE
:101AE0003B25690D0A00000010B53B212D48FEF78B
:101AF000BDFB2D4908600846006808B9012010BDEB
:101B00003B2129480068401CFEF7B0FB26490860CD
:101B10000846006808B90120F1E723480068401C26
:101B2000FEF7AEFB00B2214908803B211E48006849
:101B3000401CFEF79BFB1C4908600846006808B97A
:101B40000120DCE718480068401CFEF799FB00B252
:101B5000164948803B2114480068401CFEF786FB6C
:101B6000114908600846006808B90120C7E70E4817
:101B70000068401CFEF784FB00B20C4988800846D0
:101B80000B4908600B48008820F0400040300949AC
:101B9000088009480068FFF73DFF024802490860D5
:101BA0000020ACE7E8000020440000207400002082
:101BB000480000203C0000200000002010B53B2120
:101BC0002D48FEF753FB2D4908600846006808B908
:101BD000012010BD3B2129480068401CFEF746FB50
:101BE000264908600846006808B90120F1E7234843
:101BF0000068401CFEF744FB00B2214908803B21ED
:101C00001E480068401CFEF731FB1C49086008466E
:101C1000006808B90120DCE718480068401CFEF79E
:101C20002FFB00B2164948803B2114480068401C35
:101C3000FEF71CFB114908600846006808B901203E
:101C4000C7E70E480068401CFEF71AFB00B20C49BB
:101C5000888008460B4908600B48008820F0400047
:101C600040300949088009480068FFF7D3FE024860
:101C7000024908600020ACE7E80000204400002092
:101C80006C000020480000203C00002000000020E4
:101C900070B53B212448FEF7E9FA2449086008465C
:101CA000006808B9012070BD3B2120480068401C35
:101CB000FEF7DCFA1D4908600846006808B90120F3
:101CC000F1E71A480068401CFEF7DAFA84B2022CE9
:101CD00001DA0120E7E73B2114480068401CFEF7C9
:101CE000C5FA124908600846006808B90120DAE719
:101CF0000E480068401CFEF7C3FA85B2012D01DAD8
:101D00000120D0E7A54201DB0120CCE720B2084941
:101D1000088028B2488007480068FFF77BFE024829
:101D2000024908600020BEE7E800002044000020CF
:101D300064000020000000202DE9FC473B21694899
:101D4000FEF794FA684908600846006810B9012057
:101D5000BDE8FC873B2164480068401CFEF786FA1A
:101D6000614908600846006808B90120F0E75E484C
:101D70000068401CFEF784FA84B240F26C70844222
:101D800003DB40F63900844201DD0120E0E72F212A
:101D900055480068FEF76AFA53490860084600682B
:101DA00008B90120D4E750480068401CFEF768FAE3
:101DB00085B2012D01DB0C2D01DD0120C8E72F21AB
:101DC00049480068401CFEF751FA47490860084638
:101DD000006808B90120BBE743480068401CFEF7D3
:101DE0004FFA86B2012E01DB1F2E01DD0120AFE785
:101DF0003B213D480068FEF739FA3B490860084638
:101E0000006808B90120A3E737480068401CFEF7C6
:101E100037FA87B2172F01DD012099E73A213248BE
:101E20000068FEF723FA304908600846006808B9E0
:101E300001208DE72C480068401CFEF721FA1FFAAC
:101E400080F8B8F13B0F01DD012081E73A212648F7
:101E50000068FEF70BFA244908600846006808B9D4
:101E6000012075E7204800681930FEF709FA1FFACB
:101E700080F9B9F13B0F01DD012069E700201B4922
:101E800008601B48008820F00200194908803B4682
:101E9000324629462046CDE9008900F049F8154927
:101EA000086008201449088001201449C1F81C0169
:101EB0000F48008820F400500D4908801048006841
:101EC000FFF7A8FD0748084908600A480D4908605F
:101ED0000748008820F04000403005490880002075
:101EE00036E70000E8000020440000201CA1044266
:101EF0003C000020840000203025004000A0044267
:101F0000000000204800002010B50748008820F499
:101F1000006000F500600449088004480068FFF78D
:101F200079FD002010BD00003C00002000000020D2
:101F30002DE9F0478CB004460D4616461F46DDE9F4
:101F40001489A4F26C700690681E0590049603979D
:101F5000CDF80880CDF8049001A8FEF70FF982466D
:101F600050460CB0BDE8F08770B5049C00BF264D0C
:101F70002D88C5F30025002DF9D100BF4FF0402575
:101F80002D8805F00E05002DF8D1204D28602D6814
:101F900029701E4D2D686D1C1C4E3560150C366861
:101FA00035701A4D2D686D1C184E3560150A36684F
:101FB0003570164D2D686D1C144E356036683270C4
:101FC000124D2860124D2B80124D2C800E4D2D8805
:101FD00025F4807505F580750B4E358001250E4E74
:101FE00035704FF040252D8A45F480554FF040263E
:101FF0003582064D2D682D783572044D2D686D1C87
:10200000024E356070BD00003C0000204C000020F6
:1020100050000020520000205400002010B50D4850
:10202000007840F001000B49087040F20230094985
:10203000F83108807F20084908800020091D0880A9
:102040000820091D08800020FEF716FC0120034926
:10205000086010BD10240040202500401CA104424F
:1020600025480088254908602348008820283ADA56
:1020700023480068018822480068801C204A09B271
:10208000106020481C4A128820F832101C48006852
:1020900001881B480068801C194A09B21060194861
:1020A000154A128800EBC20041801548006801887B
:1020B00013480068801C124A09B2106011480E4A89
:1020C000128800EBC20081800D480068008801B2D0
:1020D0000C48094A128800EBC200C18006480088FB
:1020E000401C0549088004480088202801D10120AF
:1020F00070470020FCE700008C00002098000020C2
:10210000480000200C01002008B5FEF76DFF1248C2
:102110000068FF281DD8FFF754F8002000900E48F3
:10212000006802024FF4807302210C48FFF71CFF85
:1021300000BF0B480088C0F300200028F9D1FFF74A
:1021400033F805480068401C034908600020054931
:102150000880FEF7D3FE08BD900000200801002093
:102160003C0000208C0000200848008820F020005F
:10217000203006490880064806490860064800796C
:1021800040F0020004490871704700003C00002044
:10219000A8000020400000200050004018B5044670
:1021A000002001230246214600900548FFF7DCFE8F
:1021B00000BF04480088C0F300200028F9D118BDF2
:1021C000280200203C000020110C0000610C0000DF
:1021D000391D0000ED130000291300002D0C000034
:1021E000E91A0000BD1B0000511300008913000014
:1021F000911C0000C1130000091F0000F11900002C
:102200001F1C1F1E1F1E1F1F1E1F1E1F1F1D1F1EE8
:102210001F1E1F1F1E1F1E1F004040404040404009
:1022200040404141414141404040404040404040A9
:10223000404040404040404040050202020202024D
:10224000020202020202020202202020202020209C
:1022500020202002020202020202909090909090B0
:10226000101010101010101010101010101010106E
:1022700010101010020202020202888888888888E2
:1022800008080808080808080808080808080808CE
:10229000080808080202020240000000192200009B
:1022A00031323334000000003B47443B0000000063
:1022B0003B43463B000000003B474C4E3B000000C8
:1022C0003B534C4E3B0000003B47503B000000009E
:1022D0003B474C503B0000003B534C503B00000040
:1022E0003B53503B000000003B54523B00000000B9
:1022F0003B54533B000000003B47543B00000000B0
:102300003B53543B000000004F4B00004552524FDE
:10231000520000002423000000000020A80000005C
:10232000A4080000082300000C230000A0220000E5
:1023300000230000F8220000A8220000B0220000C4
:10234000C0220000D8220000B8220000D0220000E5
:10235000E0220000C8220000F0220000E822000075
:1023600000000000A8000020E8000020000000009D
:10237000000000000000000000000000000000005D
:10238000000000000000000001003C00010080008F
:10239000FF7FFF7FFF7F820000800080008083003E
:1023A000000000000000000000000000000000002D
:1023B000000000000000000000000000000000001D
:0C23C00000000000000000000000000011
:04000005000000E116
:00000001FF
