:020000040000FA
:1000000068060020F5000000FD000000FF00000071
:1000100001010000030100000501000000000000D4
:1000200000000000000000000000000007010000C8
:1000300009010000000000000B010000F5090000AC
:100040006D0B00000F0100000F0100000F01000008
:100050000F0100000F0100000F0100000F01000060
:100060000F0100000F010000000000000F01000060
:100070000F010000590500008D0500000F01000070
:100080000F010000510A00000D0900000F010000DF
:100090000F0100000F0100000F0100000F01000020
:1000A0000F0100000F0100000F0100000F01000010
:1000B0000F0100000F0100000F0100000F01000000
:1000C0000F0100000F0100000F0100000F010000F0
:1000D0000F0100000F0100000F01000000000000F0
:1000E000DFF80CD000F0A4F9004800474D1A0000DA
:1000F000680600200648804706480047FEE7FEE7FE
:10010000FEE7FEE7FEE7FEE7FEE7FEE7FEE7FEE7C7
:10011000250A0000E10000002DE9F0410024061B43
:10012000254671F1000605DA01240027D0EB07000F
:1001300067EB0101161E73F1000605DA0027D2EB0A
:100140000702012567EB030300F0BDF886460E4663
:1001500017469C46AC4204D00025D0EB050E65EB5B
:10016000010624B10020D2EB000760EB030C7046BF
:1001700031463A466346BDE8F081000038B5D0E923
:100180000221491E01EB410102EBC1014268C1EBB2
:10019000011102EB81010268C1EB011102EB810246
:1001A000D0E9043101EB410103EB81013023A1F5DA
:1001B000527191FBF3F4174D6C4302EBC41291FBA7
:1001C000F3F403FB141100921A2902DB124B1A44B8
:1001D00000920C2291FBF2F3104C6343009C04EB61
:1001E000C313009391FBF2F302FB13110C4A08E0D6
:1001F000491E40F2A324535C6343009C04EBC313E9
:1002000000930029F4DC0146684600F093F800985A
:1002100038BD00003F0C0F008051010067C2030091
:10022000D024000040EA01039B0703D009E008C97D
:10023000121F08C0042AFAD203E011F8013B00F8AB
:10024000013B521EF9D2704730B505462A460B468F
:1002500012F8010B13F8014B08B1A042F8D01CB101
:10026000002802D06D1CF1E7284630BDCAB2401EFE
:1002700010F8011F8A4202D00029F9D100207047EE
:1002800070B5064600F0B0FC046805460A2200215D
:10029000304600F095F82C6070BD30B50B46014635
:1002A00000202022012409E021FA02F59D4205D315
:1002B00003FA02F5491B04FA02F52844151EA2F1BF
:1002C0000102F1DC30BD2DE9F05F054600209246C9
:1002D0009B4688460646814640241BE02846414608
:1002E0004746224600F0C5F853465A46C01A914187
:1002F00010D311461846224600F0ACF82D1A67EBD1
:1003000001084F4622460120002100F0A3F817EB18
:1003100000094E41201EA4F10104DFDC48463146AD
:100320002A464346BDE8F09F014900F003B80000AB
:100330003802002010B500683C22B0FBF2F302FB4B
:100340001303B0FBF2F00B60B0FBF2F302FB1303FC
:10035000B0FBF2F018224B60B0FBF2F302FB130388
:10036000B0FBF2F0021D8B600723B2FBF3F403FB3A
:100370001422800040F2B55300F66C308A61B0FB65
:10038000F3F2B0FBF3F403FB1400443280084A613B
:10039000C8613B2802D3920700D0401C0022074CC2
:1003A00013460A61E25C824203D8801A5B1C0B612F
:1003B000F8E7401CC860084610BD0000DC240000BF
:1003C0002DE9F04791460F4680460446002614F872
:1003D000015B2DB100F05EF80068405DC007F6D10A
:1003E0002B2D02D02D2D18D0641E4A4639462046AA
:1003F00000F054F827B13968A14201D1C7F8008054
:1004000071054FF002040BD54042002803DD00F0D7
:10041000EBFB0460A007BDE8F08746F48066E4E7E4
:100420000028F8DA00F0E0FB04606FF00040F2E72B
:10043000064C074D06E0E06840F0010394E8070031
:1004400098471034AC42F6D3FFF74EFEE425000087
:10045000F4250000202A04DB203A00FA02F10020F3
:1004600070479140C2F1200320FA03F319439040F2
:100470007047202A04DB203A21FA02F0002170475D
:1004800021FA02F3D040C2F12002914008431946FC
:1004900070470000004870476C2500002DE9F05FB0
:1004A00082460078002715468B460AF10104B946BA
:1004B000302801D09DB113E014F8010B01277828F2
:1004C00003D0582801D045B10AE00DB1102D07D155
:1004D0000027102514F8010B02E0082500E00A258A
:1004E0000026B0460EE005FB080005FB06F10127DB
:1004F00001EB10461FFA80F8B6F5803F00D3B946ED
:1005000014F8010B294600F018F80028EBDABBF1CB
:10051000000F05D00FB1641E00E05446CBF8004038
:10052000B9F1000F06D000F05FFB02210160C81E88
:10053000BDE8F09F48EA0640FAE73A2800D2303892
:1005400020F02002412A01D3A2F13700884201D3D2
:100550004FF0FF307047000008B5002000900848B9
:10056000007800900648806C0649086006480088BC
:1005700020F4007000F500700349088008BD0000F9
:10058000000003407C0000203C00002008B5002053
:1005900000900848007800900648483000680649F6
:1005A00008600648008820F4806000F580600349F8
:1005B000088008BD80000340800000203C0000202F
:1005C00000B500F05BF800F0E7F800F069F900F022
:1005D00021F900F009F800F085F900F07BF800F04F
:1005E000A5F800F015F800BD0848007920F01000CB
:1005F000064908710846007B40F010000873084661
:10060000007A40F01000087270470000006000405F
:1006100080200E4908700D484C3890F83C0040F09E
:1006200080000A494C3981F83C00084690F83400B3
:1006300040F0800081F83400084690F8380040F01F
:100640008000024914390870704700004C60004077
:1006500000B5FFF7DDFF0348008E20F4004001499C
:10066000088600BD006000400348008E40F4004052
:1006700001490886704700000060004001200E49D3
:1006800008700D487C3890F86C0040F001000A4971
:100690007C3981F86C00084690F8640040F0010055
:1006A00081F86400084690F8680040F001000249B3
:1006B00014390870704700007C6000400120014937
:1006C000087070477C600040012001490870704745
:1006D000806000400948007840F010000749343934
:1006E00081F83400102081F85000084690F8380056
:1006F00020F010000149091D087070473460004067
:1007000000B5FFF7E7FF0348008E20F400700149B1
:10071000088600BD006000400348008E40F4007071
:1007200001490886704700000060004060200E49C3
:1007300008700D48503890F83C0040F060000A49BD
:10074000503981F83C00084690F8340040F06000D1
:1007500081F83400084690F8380020F06000024923
:1007600018390870704700005060004000B5FFF76E
:10077000DDFF0348008E20F420500149088600BDAB
:10078000006000400348008E40F420500149088674
:1007900070470000006000401D48007920F0C00054
:1007A0001B4908710846007B40F0C00008730846EA
:1007B000007A40F0C000087215483430007820F00C
:1007C0000F0081F83400084690F83C0040F00F001C
:1007D00081F83C00084690F8380040F00F0081F89E
:1007E0003800084690F8640020F0060081F86400A4
:1007F000084690F86C0040F0060081F86C0008464E
:1008000090F8680040F0060081F86800704700002A
:10081000006000400F48007920F004000D49087185
:100820000846007B40F0040008730846007A40F058
:10083000040008720846007920F00200087108469A
:10084000007B20F0020008730846007A20F00200C6
:1008500008727047006000400348008820F03C00A8
:10086000014908807047000000600040034800888C
:1008700040F03C00014908807047000000600040E3
:1008800000B5FFF73DFFFFF771FFFFF7E1FE00BD89
:1008900000B5FFF741FFFFF775FFFFF7E5FE00BD6D
:1008A00009200A49087009482038007B20F0090017
:1008B0000649203908730846007940F0090008719C
:1008C0000846007A20F00900087270472060004056
:1008D00000B5FFF7E5FF00BD09200149087070472A
:1008E000206000400848007B20F020000649087383
:1008F0000846007920F0200008710846007A20F0B0
:1009000020000872704700000060004008B54FF0FA
:100910004020008800903148007850B301285AD117
:100920002F480088401E2E4908800846008858B18C
:100930002C48006800784FF0402108722948006870
:10094000401C2849086013E02748008850B1AA20BD
:100950004FF04021087200202049087023482149A7
:10096000086005E02248008820F480702049088053
:1009700031E01D48008838B3AA204FF040210872AA
:100980000846008A00F4805028B10846008A20F406
:10099000805008821EE00FE04FF04020007911499E
:1009A000096808700F480068401C0E4908600E482E
:1009B0000088401E0C4908804FF04020008800F459
:1009C000E0600028E8D105E00948008820F4807044
:1009D0000749088000BF00BF08BD00005400002088
:1009E000500000204C00002052000020280200206F
:1009F0003C0000200748084908600848084908608A
:100A00004FF0E020006920F003004FF0E021086182
:100A100070470000A800002040000020E8000020EF
:100A20004400002000200749088001200649088072
:100A300002200649088047F2F810888040F2FF3013
:100A400088857047882500404424004000200040ED
:100A50000CB54148007A01903F48007D00909DF818
:100A60000400022802D004285CD127E03B4800683B
:100A70000078394908703948006800780A2817D189
:100A80003748008820F010001030354908800846AB
:100A90000088C0F3003020B90846008820F020000C
:100AA00008802D48007920F002002B49087104E0ED
:100AB0002A480068401C294908604AE04FF0E020BD
:100AC000006920F003004FF0E0210861224800781F
:100AD0002449096808702348006800780A280AD168
:100AE0001F48008820F0080008301D4908801E4873
:100AF0001C49086015E01B480068401C1949086043
:100B00000846016818482030814202D9203815492A
:100B100008604FF0E020006940F003004FF0E02152
:100B2000086116E09DF8000000F0100028B10C48A4
:100B3000008820F004000A49088007480078094925
:100B400009680870084807490860052002490871CB
:100B500000BF00BF0CBD000000500040400000205E
:100B60003C00002044000020E80000200820094943
:100B700008800948008820F4005000F5005006491C
:100B8000088000BF00BF00BFBFF34F8F00BF00BF92
:100B900000BF7047302500403C0000200FB4084BD8
:100BA00010B504A902AA039800F032F8044602A97D
:100BB000002000F0CEF9204610BC5DF814FB0000C8
:100BC000530F000000280DDB00BF00BF00F01F0224
:100BD000012191404209920002F1E022C2F8001185
:100BE00000BF00BF7047000000487047A40000200D
:100BF00002E008C8121F08C1002AFAD170477047E6
:100C0000002001E001C1121F002AFBD17047000043
:100C10002DE9FF4F8BB088460546002606E02528C3
:100C20000BD0DDE90D1290476D1C761C287800284A
:100C3000F5D10FB03046BDE8F08F0024A146A246A2
:100C40000122AE4900E0044315F8013F203B02FABF
:100C500003F00842F7D128782A2810D06FF02F022D
:100C60002878A0F13001092915D809EB890102EB98
:100C7000410144F0020400EB01096D1CF0E758F853
:100C8000041B5FEA010903D544F40054C9F10009CB
:100C900044F002046D1C28782E2817D115F8010F96
:100CA00044F004042A280ED06FF02F022878A0F117
:100CB000300109290AD80AEB8A0102EB410100EB55
:100CC000010A6D1CF2E758F804AB6D1C28786C28FB
:100CD0000FD006DC4C2817D068280DD06A2814D114
:100CE00004E0742810D07A280FD10DE044F40014E9
:100CF0000AE044F4801401E044F44014697881422D
:100D000002D104F580146D1C6D1C2878692865D00B
:100D100006DC00288DD0632827D0642806D15DE04A
:100D20006E2808D073282AD0752877D0DDE90D12F7
:100D30009047761CE0E0C4F30250022809D0032853
:100D40000DD0D8F8001004280DD00E6008F104086A
:100D5000D2E0D8F80010F217C1E90062F6E7D8F83F
:100D600000100E80F2E70E70F0E718F8041B8DF803
:100D7000001000208DF80100EB46012003E058F838
:100D800004BB4FF0FF3061074FF0000701D40AE0C9
:100D90007F1C57450DDA8742FADB1BF80710002944
:100DA000F6D106E07F1C8742FCDB1BF80710002908
:100DB000F8D1DDE90D23A9EB07008146214600F0BB
:100DC000B1F83044C61904E0DDE90D121BF8010B3F
:100DD00090477F1EF8D22146484688E058F8040B19
:100DE000C4F302514FF00A0B032900D100B20429C9
:100DF00000D140B2002802DA40422D2102E0210554
:100E000005D52B218DF82410012104E006E0E1072F
:100E100010D02021F6E708AF089113E058F8040B32
:100E2000C4F302514FF00A0B032900D180B2042908
:100E300000D1C0B20021EEE75946FFF72EFA30315B
:100E400007F8011D0028F7D1ADEB070000F1200BDA
:100E5000600702D524F4803401E04FF0010ADA453E
:100E600002DDAAEB0B0000E00020824600EB0B0144
:100E700008980144A9EB01000A90E00306D4DDE9DB
:100E80000D2321460A9800F04DF806444FF0000962
:100E900008E009A911F80900DDE90D12904709F1F0
:100EA0000109761C08998945F3DBE0030CD5DDE9DF
:100EB0000D2321460A9800F035F8064404E0DDE9E8
:100EC0000D1230209047761CBAF10001AAF1010AF8
:100ED000F5DC05E0DDE90D1217F8010B9047761CF3
:100EE000BBF10001ABF1010BF4DC0A982146DDE90E
:100EF0000D2300F005F806446D1C97E60928010053
:100F00002DE9F041044600251E461746880404D406
:100F100005E039462020B0476D1C641EF9D52846EF
:100F2000BDE8F0812DE9F041044600251E469046BB
:100F3000C80301D5302700E02027880404D505E048
:100F400041463846B0476D1C641EF9D52846BDE8B9
:100F5000F0810A68531C0B60107070470348044905
:100F6000086005200349087100207047E800002050
:100F7000440000200050004010B500F07CFAC7206B
:100F800001F074FA00F06AFA00200549088005496A
:100F900008600548006800F0A5FE002010BD0000B4
:100FA0008C000020900000200000002001207047ED
:100FB0002DE9F04395B04B480068450100BF4A4811
:100FC0000088C0F300200028F9D100BF474800681E
:100FD00085421DD9454800684409210243480068FC
:100FE000A0EB441001EBC007082004233A4603217C
:100FF00000903F4801F020F900BF3B480088C0F353
:1010000000200028F9D13A4800F0A2F880460DE00F
:1010100036480068401B86B236480088864205DAAA
:10102000354901EBC60000F093F88046B8F1000F97
:10103000CCD13248FFF778F981462C2249460AA8DC
:10104000FFF7F0F80AA80BC80D9ACDE90023CDE907
:1010500002100E98431C0F9800F26C7228A13048C1
:10106000FFF79CFD2E4814302E4908602348B0F944
:101070001A20B0F918002149B1F916101F4BB3F925
:101080001430CDE90631CDE908021C48B0F9122030
:10109000B0F91010B0F90E00184BB3F90C30CDE9CF
:1010A0000230CDE904121548B0F90A001349B1F92C
:1010B0000810CDE900101148B0F90630B0F904204D
:1010C00019A118480068FFF769FD0A4800882844FC
:1010D00006490968884203D9012015B0BDE8F083AC
:1010E0000020FAE7900000203C000020940000203F
:1010F000280200208C0000200C0100200C0200209F
:101100002534642F252E32642F252E32643B252E64
:1011100032643A252E32643A252E32643B000000B8
:10112000A80000204000002025693B25693B256977
:101130003B25693B25693B25693B25693B25693B87
:1011400025693B25693B25693B25693B0D0A000064
:10115000014601208A79802A06D0822A0AD0832A71
:1011600010D0842A1AD115E00A881D4B5A834A8868
:101170001A832EE00A881A4B5A824A889A828A88F1
:10118000DA8226E00A88164B9A814A88DA818A88B0
:101190001A821EE0124B0A681A601AE00A88104B85
:1011A000DA804A881A818A885A811A4613688A79AD
:1011B00002F001021AB10B4AB2F9002002E0094A1A
:1011C000B2F902201A44064B1A608A799A800020EC
:1011D00000BF00BF044A1268521C034B1A607047DC
:1011E0000C020020640000209400002010B50B4881
:1011F000806820F400200949886008488830006829
:1012000020F40020C1F888000548808D40F400706B
:1012100003498885FFF75CFB10BD00000000034018
:101220000020004010B54FF04020008A20F001005F
:101230004FF0402108820748808840F007000549A8
:1012400088800846808D40F001008885FFF718FBF4
:1012500010BD00000020004010B5012008490870B2
:101260000848808840F46060064988800846808D80
:1012700040F008008885FFF7EFFA002010BD00005D
:10128000305000400020004010B50C48808D20F404
:1012900000700A4988850A48806840F4002008499F
:1012A000886007488830006840F40020C1F8880052
:1012B000FFF70AFAFFF710FB10BD00000020004006
:1012C0000000034010B5FFF7FFF9FFF7E1FA0A4805
:1012D000808820F00700801C074988800846808DA0
:1012E00020F0010088854FF04020008A40F0010086
:1012F0004FF04021088210BD0020004010B5FFF7DC
:10130000B5FA0948808820F4606040F4007006490E
:1013100088800846808D20F00800888500200349D9
:101320000870012010BD0000002000403050004037
:1013300070B505463C4801682846FEF785FF04461F
:101340000CB9002070BDAC4201D00020FAE73B216F
:101350002846FEF78BFF0446601B042801D00020BE
:10136000F0E7324801682046FEF76EFF08B1022020
:10137000E8E72F4801682046FEF766FF08B1032022
:10138000E0E72C4801682046FEF75EFF08B1042024
:10139000D8E7294801682046FEF756FF08B1052026
:1013A000D0E7264801682046FEF74EFF08B1062028
:1013B000C8E7234801682046FEF746FF08B107202A
:1013C000C0E7204801682046FEF73EFF08B108202C
:1013D000B8E71D4801682046FEF736FF08B109202E
:1013E000B0E71A4801682046FEF72EFF08B10A2030
:1013F000A8E7174801682046FEF726FF08B10B2032
:10140000A0E7144801682046FEF71EFF08B10C2033
:1014100098E7114801682046FEF716FF08B10D2035
:1014200090E701208EE70000080000200C0000205B
:101430001000002014000020180000201C000020D4
:101440002000002024000020280000202C00002084
:1014500030000020340000203800002000B500BF1C
:10146000052000F00FFC00F001000028F8D1042056
:1014700000F0FCFF00BD00B500BF052000F002FC3D
:1014800000F001000028F8D1062000F0EFFF00BFB7
:10149000052000F0F7FB00F002000228F8D100BDA3
:1014A0002DE9F84F814630488068840AA402CDF8BF
:1014B0000090DDF80090B9F1000F06D0B9F1010FEE
:1014C00009D0B9F1020F13D10BE044F00104082058
:1014D000264908770CE044F04304012023490877AB
:1014E00006E040F20910044309202049087700BFB4
:1014F00000BF4FF4FA4A01E0AAF1010ABAF1000F65
:10150000FAD1194884601A48008820F400701849FC
:1015100008801548808C20F0070B4BF00200124920
:10152000888400BF12480088C0F340200028F9D00A
:1015300010480068C61705460F494FF0000C2A46B0
:10154000A2FB017E06FB01E105FB0C114FF080526E
:1015500063463846FEF7E0FD054609200349203181
:10156000087028B2BDE8F88F00000340006000401A
:101570003C0000207C0000208096980030B58FB0A1
:1015800004460D48FEF7D0FE05462C22294604A845
:10159000FEF748FE04A80BC8079ACDE90023CDE961
:1015A00002100898431C099800F26C7203A12046AF
:1015B000FFF7F4FA0FB030BD840000202534642F0B
:1015C000252E32642F252E32643B252E32643A2597
:1015D0002E32643A252E32640000000010B500203F
:1015E00006490860FFF7E4FC0549098860F30C31FF
:1015F0000348018000F020FF002010BD940000206F
:101600003C00002008B50848B0F9040000900648E6
:10161000B0F90230B0F9002004A10748FFF7BEFA84
:1016200000F00AFF002008BD7400002025643B255F
:10163000643B25640D0A0000A800002008B5084896
:10164000B0F9040000900648B0F90230B0F900206B
:1016500004A10748FFF7A2FA00F0EEFE002008BD43
:101660006C00002025643B25643B25640D0A0000C6
:10167000A800002010B50648B0F90230B0F90020EB
:1016800004A10648FFF78AFA00F0D6FE002010BD3C
:101690006400002025643B25640D0A00A80000209A
:1016A00010B50D480D49086008460068FFF766FF51
:1016B0000A4909680844094908600D20096808704A
:1016C00006480068401C054908600A20096808703F
:1016D00000F0B2FE002010BDA80000204000002055
:1016E00010B5FFF7D1FD00F093F84006000E424917
:1016F000C8800020FFF7D4FE3F4908800120FFF793
:10170000CFFE3D4948800220FFF7CAFE3A49888053
:10171000FFF76CFD39480088C0F3C01038B1364877
:10172000B0F9060040F001003349C88007E03248B4
:10173000C0884FF6FE71084000B22F49C8802F487C
:101740000088C0F3C020002855D12B49B1F9001002
:101750002B4AB2F90020914207DC2749B1F9001069
:10176000284AB2F90020914201DA012100E000216B
:1017700008462149B1F90210214AB2F902209142EA
:1017800007DC1D49B1F902101E4AB2F9022091424C
:1017900001DA012100E00021014488B21649B1F9C3
:1017A0000410174AB2F90420914207DC1249B1F93A
:1017B0000410144AB2F90420914201DA012100E038
:1017C0000021014488B208B1012100E000210B4A48
:1017D000128861F3C71209490A800988C1F3C01150
:1017E00019B10949B1F9001002E00749B1F9021035
:1017F000064A118000BF10BD5C0000203C000020A4
:101800006C00002074000020640000209C00002078
:101810002DE9F0472048008820F480601E490880A8
:101820001E4800884FF6F87100EA010848F00200EF
:101830001A49A439A1F8A40000BF17480088C0F3D2
:1018400080200028F9D016480068C5170446154ABC
:1018500000202146A1FB026905FB029204FB002146
:101860006FF0704203463046FEF756FC04460D46C4
:101870000D4BE21A65F1000046F2A813D41840F1AE
:1018800000054FF47A72002320462946FEF744FCF7
:1018900000B2BDE8F08700003C000020A400034037
:1018A00080000020804F1200B440010010B5234892
:1018B0000088C0F3800030B12048008820F48040C8
:1018C0001E49088010BD1D480088C0F3002020B9C3
:1018D0001A480088C0F3401000B1F3E717480088A9
:1018E00020F4804015490880FFF79CFCFFF7B4FC0A
:1018F0001249098860F3820110480180FFF776FCE5
:10190000FEF7DCFE04200E49086044F659000D493C
:1019100008804FF27B2008800420091F08700024F3
:1019200000BF00E0641C022CFCD330BF002400E0A8
:10193000641C022CFCD300BFC4E700003C00002064
:1019400010ED00E00424004010B51448808C40F0F5
:101950006300124988840846007940F0010008714C
:101960000E48A430008840F01300A1F8A4000B48F2
:10197000883000680A4908430849C1F888000846C9
:1019800090F8840040F0010081F884000D20FFF7FA
:1019900019F90E20FFF716F910BD000000000340F2
:1019A00011C203000348808D20F4FB700149888533
:1019B000704700000020004010B509204FF0402182
:1019C00088810846008A40F6420108434FF04021D2
:1019D00008821220FFF7F6F810BD000003484FF010
:1019E000E02148618861042008617047FF691800A0
:1019F00010B51348007B40F01E00114908730846DB
:101A0000007C40F0080008740120088548F6AE000C
:101A100088840520087111200321002804DB4A076F
:101A2000130E084A135406E04A07140E064A00F043
:101A30000F031B1FD45400BF1120FFF7C3F810BDC4
:101A40000050004000E400E018ED00E01CB5FEF797
:101A5000B7FDFFF7A7FF4FF440307C498860FFF7E0
:101A600013FCFFF771FFFFF7C1FBFFF747FC784955
:101A7000098860F3820176480180FFF7B9FFFFF71C
:101A800021FCFFF799FFFFF7CDFBFFF7A7FF002031
:101A900070490880704908607048007D00F00200BD
:101AA00070B9FFF7D9FB6A49098860F38201684879
:101AB0000180008820F4804000F58040644908805F
:101AC00000200090034601221146019040F2E3708D
:101AD00000F096FB624908608420887100F006FCE3
:101AE00060484088604908805948008820F40060B8
:101AF00000F5006056490880A6E055480088C0F30C
:101B0000403020B35248008820F4005050490880EB
:101B100053480068401C524908604D480088C0F393
:101B2000C02020B1FFF7DCFD00F0ECF80FE04C48DE
:101B300000684D490988B0FBF1F201FB120030B991
:101B40004348008820F00200801C4149088040483A
:101B50000088C0F3400088B13D48008820F00200B2
:101B60003B490880FFF7BCFD4048414908603848C0
:101B7000008820F040004030354908803448008813
:101B8000C0F3801090B13248008820F04000304906
:101B9000088000F0CDFB08B100F01EFC2C48008846
:101BA00020F4804000F580402949088028480088BA
:101BB000C0F3803070B1FFF779FE2848007D00F057
:101BC000020038B1FFF79AFB2149098860F38201CE
:101BD0001F4801801E480088C0F30010A0B11C48B7
:101BE000008820F010001A49088008460088C0F3D9
:101BF000003048B1FFF7DCF91549098860F30C3172
:101C00001348018000F018FC11480088C0F3C000A0
:101C1000D0B10F480088C0F34010A8B90C48008824
:101C200020F008000A4908801248FFF781FB12499A
:101C300051F820001149086008460068804718B133
:101C40000F48006800F04EF857E70000000003401E
:101C50003C0000208C00002090000020006000402C
:101C600084000020640000209C0000205C00002014
:101C700048000020E800002098240000A000002078
:101C80000400002018B50446012003460022214626
:101C90000090084800F0D0FA00BF07480088C0F361
:101CA00000200028F9D1034804490860084600686C
:101CB000007818BD280200203C0000204C000020C5
:101CC00010B50648008820F40060044908800448E4
:101CD000006800F007F8002010BD00003C00002064
:101CE0000000002010B50446224603A10448FEF778
:101CF00055FF00F0A1FB10BD25730D0A0000000088
:101D0000A800002030B58FB01B4C1C48FEF70CFB20
:101D100005462C22294604A8FEF784FA04A80BC81D
:101D2000079ACDE90023CDE902100898431C0998D1
:101D300000F26C7212A11A48FEF730FF18481430F6
:101D4000184908602578A01FB0F90400A11FB1F957
:101D50000210CDE90010A01FB0F9003005EBD570DE
:101D6000421011A10F480068FEF718FF00F064FB55
:101D700000200FB030BD0000620000208400002071
:101D80002534642F252E32642F252E32643B252ED8
:101D900032643A252E32643A252E32643B0000002C
:101DA000A80000204000002025693B25693B2569EB
:101DB0003B25690D0A00000010B53B212D48FEF7B8
:101DC00055FA2D4908600846006808B9012010BD81
:101DD0003B2129480068401CFEF748FA2649086064
:101DE0000846006808B90120F1E723480068401C54
:101DF000FEF746FA00B2214908803B211E480068E0
:101E0000401CFEF733FA1C4908600846006808B910
:101E10000120DCE718480068401CFEF731FA00B2E8
:101E2000164948803B2114480068401CFEF71EFA02
:101E3000114908600846006808B90120C7E70E4844
:101E40000068401CFEF71CFA00B20C498880084666
:101E50000B4908600B48008820F0400040300949D9
:101E6000088009480068FFF73DFF02480249086002
:101E70000020ACE7E80000204400002074000020AF
:101E8000480000203C0000200000002010B53B214D
:101E90002D48FEF7EBF92D4908600846006808B99F
:101EA000012010BD3B2129480068401CFEF7DEF9E7
:101EB000264908600846006808B90120F1E7234870
:101EC0000068401CFEF7DCF900B2214908803B2184
:101ED0001E480068401CFEF7C9F91C490860084606
:101EE000006808B90120DCE718480068401CFEF7CC
:101EF000C7F900B2164948803B2114480068401CCD
:101F0000FEF7B4F9114908600846006808B90120D5
:101F1000C7E70E480068401CFEF7B2F900B20C4952
:101F2000888008460B4908600B48008820F0400074
:101F300040300949088009480068FFF7D3FE02488D
:101F4000024908600020ACE7E800002044000020BF
:101F50006C000020480000203C0000200000002011
:101F600070B53B212448FEF781F9244908600846F2
:101F7000006808B9012070BD3B2120480068401C62
:101F8000FEF774F91D4908600846006808B9012089
:101F9000F1E71A480068401CFEF772F984B2022C7F
:101FA00001DA0120E7E73B2114480068401CFEF7F6
:101FB0005DF9124908600846006808B90120DAE7AF
:101FC0000E480068401CFEF75BF985B2012D01DA6E
:101FD0000120D0E7A54201DB0120CCE720B208496F
:101FE000088028B2488007480068FFF77BFE024857
:101FF000024908600020BEE7E800002044000020FD
:1020000064000020000000202DE9FC473B216948C6
:10201000FEF72CF9684908600846006810B90120ED
:10202000BDE8FC873B2164480068401CFEF71EF9B0
:10203000614908600846006808B90120F0E75E4879
:102040000068401CFEF71CF984B240F26C708442B8
:1020500003DB40F63900844201DD0120E0E72F2157
:1020600055480068FEF702F95349086008460068C1
:1020700008B90120D4E750480068401CFEF700F979
:1020800085B2012D01DB0C2D01DD0120C8E72F21D8
:1020900049480068401CFEF7E9F8474908600846CF
:1020A000006808B90120BBE743480068401CFEF700
:1020B000E7F886B2012E01DB1F2E01DD0120AFE71C
:1020C0003B213D480068FEF7D1F83B4908600846CF
:1020D000006808B90120A3E737480068401CFEF7F4
:1020E000CFF887B2172F01DD012099E73A21324856
:1020F0000068FEF7BBF8304908600846006808B978
:1021000001208DE72C480068401CFEF7B9F81FFA43
:1021100080F8B8F13B0F01DD012081E73A21264824
:102120000068FEF7A3F8244908600846006808B96B
:10213000012075E7204800681930FEF7A1F81FFA62
:1021400080F9B9F13B0F01DD012069E700201B494F
:1021500008601B48008820F00200194908803B46AF
:10216000324629462046CDE9008900F049F8154954
:10217000086008201449088001201449C1F81C0196
:102180000F48008820F400500D490880104800686E
:10219000FFF7A8FD0748084908600A480D4908608C
:1021A0000748008820F040004030054908800020A2
:1021B00036E70000E8000020440000201CA1044293
:1021C0003C000020840000203025004000A0044294
:1021D000000000204800002010B50748008820F4C7
:1021E000006000F500600449088004480068FFF7BB
:1021F00079FD002010BD00003C0000200000002000
:102200002DE9F0478CB004460D4616461F46DDE921
:102210001489A4F26C700690681E059004960397CA
:10222000CDF80880CDF8049001A8FDF7A7FF8246FD
:1022300050460CB0BDE8F08770B5049C00BF264D39
:102240002D88C5F30025002DF9D100BF4FF04025A2
:102250002D8805F00E05002DF8D1204D28602D6841
:1022600029701E4D2D686D1C1C4E3560150C36688E
:1022700035701A4D2D686D1C184E3560150A36687C
:102280003570164D2D686D1C144E356036683270F1
:10229000124D2860124D2B80124D2C800E4D2D8832
:1022A00025F4807505F580750B4E358001250E4EA1
:1022B00035704FF040252D8A45F480554FF040266B
:1022C0003582064D2D682D783572044D2D686D1CB4
:1022D000024E356070BD00003C0000204C00002024
:1022E00050000020520000205400002010B50D487E
:1022F000007840F001000B49087040F203300949B2
:10230000F8310880002008490880091D088008204D
:10231000091D08800020FEF755FC012003490860D4
:1023200010BD000010240040202500401CA10442E4
:1023300025480088254908602348008820283ADA83
:1023400023480068018822480068801C204A09B29E
:10235000106020481C4A128820F832101C4800687F
:1023600001881B480068801C194A09B2106019488E
:10237000154A128800EBC2004180154800680188A8
:1023800013480068801C124A09B2106011480E4AB6
:10239000128800EBC20081800D480068008801B2FD
:1023A0000C48094A128800EBC200C1800648008828
:1023B000401C0549088004480088202801D10120DC
:1023C00070470020FCE700008C00002098000020EF
:1023D000480000200C01002008B5FEF773FF1248EA
:1023E0000068FF281DD8FFF746F8002000900E482F
:1023F000006802024FF4807302210C48FFF71CFFB3
:1024000000BF0B480088C0F300200028F9D1FFF777
:1024100025F805480068401C03490860002005496C
:102420000880FEF7FFFE08BD900000200801002094
:102430003C0000208C0000200848008820F020008C
:102440002030064908800648064908600648007999
:1024500040F0020004490871704700003C00002071
:10246000A8000020400000200050004018B504469D
:10247000002001230246214600900548FFF7DCFEBC
:1024800000BF04480088C0F300200028F9D118BD1F
:10249000280200203C0000205D0F0000AD0F00006E
:1024A00009200000A1160000DD150000790F0000D2
:1024B000B91D00008D1E0000051600003D1600002D
:1024C000611F000075160000D9210000C11C00002A
:1024D0001F1C1F1E1F1E1F1F1E1F1E1F1F1D1F1E16
:1024E0001F1E1F1F1E1F1E1F004040404040404037
:1024F00040404141414141404040404040404040D7
:10250000404040404040404040050202020202027A
:1025100002020202020202020220202020202020C9
:1025200020202002020202020202909090909090DD
:10253000101010101010101010101010101010109B
:10254000101010100202020202028888888888880F
:1025500008080808080808080808080808080808FB
:10256000080808080202020240000000E9240000F6
:1025700031323334000000003B47443B0000000090
:102580003B43463B000000003B474C4E3B000000F5
:102590003B534C4E3B0000003B47503B00000000CB
:1025A0003B474C503B0000003B534C503B0000006D
:1025B0003B53503B000000003B54523B00000000E6
:1025C0003B54533B000000003B47543B00000000DD
:1025D0003B53543B000000004F4B00004552524F0C
:1025E00052000000F425000000000020A8000000B8
:1025F000F00B0000D8250000DC250000702500004D
:10260000D0250000C82500007825000080250000A6
:1026100090250000A825000088250000A0250000C6
:10262000B025000098250000C0250000B825000056
:1026300000000000A8000020E800002000000000CA
:10264000000000000000000000000000000000008A
:10265000000000000000000001003C0001008000BC
:10266000FF7FFF7FFF7F820000800080008083006B
:10267000000000000000000000000000000000005A
:10268000000000000000000000000000000000004A
:0C2690000000000000000000000000003E
:04000005000000E116
:00000001FF
